{
  "abi": [
    {
      "type": "constructor",
      "inputs": [],
      "stateMutability": "nonpayable"
    },
    {
      "type": "function",
      "name": "acceptOwnership",
      "inputs": [],
      "outputs": [],
      "stateMutability": "nonpayable"
    },
    {
      "type": "function",
      "name": "getMerchantCreatedAt",
      "inputs": [
        {
          "name": "_merchantId",
          "type": "bytes32",
          "internalType": "bytes32"
        }
      ],
      "outputs": [
        {
          "name": "createdAt",
          "type": "uint256",
          "internalType": "uint256"
        }
      ],
      "stateMutability": "view"
    },
    {
      "type": "function",
      "name": "getMerchantInfo",
      "inputs": [
        {
          "name": "_merchantId",
          "type": "bytes32",
          "internalType": "bytes32"
        }
      ],
      "outputs": [
        {
          "name": "",
          "type": "tuple",
          "internalType": "struct IMerchantRegistry.Merchant",
          "components": [
            {
              "name": "owner",
              "type": "address",
              "internalType": "address"
            },
            {
              "name": "payoutWallet",
              "type": "address",
              "internalType": "address"
            },
            {
              "name": "metadataURI",
              "type": "string",
              "internalType": "string"
            },
            {
              "name": "exists",
              "type": "bool",
              "internalType": "bool"
            },
            {
              "name": "verificationStatus",
              "type": "uint8",
              "internalType": "enum IMerchantRegistry.VerificationStatus"
            },
            {
              "name": "createdAt",
              "type": "uint256",
              "internalType": "uint256"
            }
          ]
        }
      ],
      "stateMutability": "view"
    },
    {
      "type": "function",
      "name": "getMerchantVerificationStatus",
      "inputs": [
        {
          "name": "_merchantId",
          "type": "bytes32",
          "internalType": "bytes32"
        }
      ],
      "outputs": [
        {
          "name": "status",
          "type": "uint8",
          "internalType": "enum IMerchantRegistry.VerificationStatus"
        }
      ],
      "stateMutability": "view"
    },
    {
      "type": "function",
      "name": "initialize",
      "inputs": [
        {
          "name": "initialOwner",
          "type": "address",
          "internalType": "address"
        }
      ],
      "outputs": [],
      "stateMutability": "nonpayable"
    },
    {
      "type": "function",
      "name": "isMerchantVerified",
      "inputs": [
        {
          "name": "_merchantId",
          "type": "bytes32",
          "internalType": "bytes32"
        }
      ],
      "outputs": [
        {
          "name": "isVerified",
          "type": "bool",
          "internalType": "bool"
        }
      ],
      "stateMutability": "view"
    },
    {
      "type": "function",
      "name": "owner",
      "inputs": [],
      "outputs": [
        {
          "name": "",
          "type": "address",
          "internalType": "address"
        }
      ],
      "stateMutability": "view"
    },
    {
      "type": "function",
      "name": "pause",
      "inputs": [],
      "outputs": [],
      "stateMutability": "nonpayable"
    },
    {
      "type": "function",
      "name": "paused",
      "inputs": [],
      "outputs": [
        {
          "name": "",
          "type": "bool",
          "internalType": "bool"
        }
      ],
      "stateMutability": "view"
    },
    {
      "type": "function",
      "name": "pendingOwner",
      "inputs": [],
      "outputs": [
        {
          "name": "",
          "type": "address",
          "internalType": "address"
        }
      ],
      "stateMutability": "view"
    },
    {
      "type": "function",
      "name": "registerMerchant",
      "inputs": [
        {
          "name": "_payoutWallet",
          "type": "address",
          "internalType": "address"
        },
        {
          "name": "_metadataUri",
          "type": "string",
          "internalType": "string"
        }
      ],
      "outputs": [
        {
          "name": "merchantId",
          "type": "bytes32",
          "internalType": "bytes32"
        }
      ],
      "stateMutability": "nonpayable"
    },
    {
      "type": "function",
      "name": "renounceOwnership",
      "inputs": [],
      "outputs": [],
      "stateMutability": "nonpayable"
    },
    {
      "type": "function",
      "name": "transferOwnership",
      "inputs": [
        {
          "name": "newOwner",
          "type": "address",
          "internalType": "address"
        }
      ],
      "outputs": [],
      "stateMutability": "nonpayable"
    },
    {
      "type": "function",
      "name": "unpause",
      "inputs": [],
      "outputs": [],
      "stateMutability": "nonpayable"
    },
    {
      "type": "function",
      "name": "updateMerchant",
      "inputs": [
        {
          "name": "_merchantId",
          "type": "bytes32",
          "internalType": "bytes32"
        },
        {
          "name": "_payoutWallet",
          "type": "address",
          "internalType": "address"
        },
        {
          "name": "_metadataUri",
          "type": "string",
          "internalType": "string"
        }
      ],
      "outputs": [],
      "stateMutability": "nonpayable"
    },
    {
      "type": "function",
      "name": "updateMerchantVerificationStatus",
      "inputs": [
        {
          "name": "_merchantId",
          "type": "bytes32",
          "internalType": "bytes32"
        },
        {
          "name": "_newStatus",
          "type": "uint8",
          "internalType": "enum IMerchantRegistry.VerificationStatus"
        }
      ],
      "outputs": [],
      "stateMutability": "nonpayable"
    },
    {
      "type": "event",
      "name": "Initialized",
      "inputs": [
        {
          "name": "version",
          "type": "uint64",
          "indexed": false,
          "internalType": "uint64"
        }
      ],
      "anonymous": false
    },
    {
      "type": "event",
      "name": "MerchantRegistered",
      "inputs": [
        {
          "name": "merchantId",
          "type": "bytes32",
          "indexed": true,
          "internalType": "bytes32"
        },
        {
          "name": "owner",
          "type": "address",
          "indexed": false,
          "internalType": "address"
        },
        {
          "name": "payoutWallet",
          "type": "address",
          "indexed": false,
          "internalType": "address"
        }
      ],
      "anonymous": false
    },
    {
      "type": "event",
      "name": "MerchantUpdated",
      "inputs": [
        {
          "name": "merchantId",
          "type": "bytes32",
          "indexed": true,
          "internalType": "bytes32"
        }
      ],
      "anonymous": false
    },
    {
      "type": "event",
      "name": "MerchantVerificationStatusUpdated",
      "inputs": [
        {
          "name": "merchantId",
          "type": "bytes32",
          "indexed": true,
          "internalType": "bytes32"
        },
        {
          "name": "oldStatus",
          "type": "uint8",
          "indexed": false,
          "internalType": "enum IMerchantRegistry.VerificationStatus"
        },
        {
          "name": "newStatus",
          "type": "uint8",
          "indexed": false,
          "internalType": "enum IMerchantRegistry.VerificationStatus"
        }
      ],
      "anonymous": false
    },
    {
      "type": "event",
      "name": "OwnershipTransferStarted",
      "inputs": [
        {
          "name": "previousOwner",
          "type": "address",
          "indexed": true,
          "internalType": "address"
        },
        {
          "name": "newOwner",
          "type": "address",
          "indexed": true,
          "internalType": "address"
        }
      ],
      "anonymous": false
    },
    {
      "type": "event",
      "name": "OwnershipTransferred",
      "inputs": [
        {
          "name": "previousOwner",
          "type": "address",
          "indexed": true,
          "internalType": "address"
        },
        {
          "name": "newOwner",
          "type": "address",
          "indexed": true,
          "internalType": "address"
        }
      ],
      "anonymous": false
    },
    {
      "type": "event",
      "name": "Paused",
      "inputs": [
        {
          "name": "account",
          "type": "address",
          "indexed": false,
          "internalType": "address"
        }
      ],
      "anonymous": false
    },
    {
      "type": "event",
      "name": "Unpaused",
      "inputs": [
        {
          "name": "account",
          "type": "address",
          "indexed": false,
          "internalType": "address"
        }
      ],
      "anonymous": false
    },
    {
      "type": "error",
      "name": "EnforcedPause",
      "inputs": []
    },
    {
      "type": "error",
      "name": "ExpectedPause",
      "inputs": []
    },
    {
      "type": "error",
      "name": "InvalidInitialization",
      "inputs": []
    },
    {
      "type": "error",
      "name": "MerchantRegistry__InvalidMetadataUri",
      "inputs": []
    },
    {
      "type": "error",
      "name": "MerchantRegistry__InvalidVerificationStatus",
      "inputs": []
    },
    {
      "type": "error",
      "name": "MerchantRegistry__MerchantAlreadyExists",
      "inputs": []
    },
    {
      "type": "error",
      "name": "MerchantRegistry__MerchantNotFound",
      "inputs": []
    },
    {
      "type": "error",
      "name": "MerchantRegistry__MerchantNotVerified",
      "inputs": []
    },
    {
      "type": "error",
      "name": "MerchantRegistry__ThrowZeroAddress",
      "inputs": []
    },
    {
      "type": "error",
      "name": "MerchantRegistry__UnauthorizedMerchant",
      "inputs": []
    },
    {
      "type": "error",
      "name": "MerchantRegistry__UnverifiedMerchant",
      "inputs": []
    },
    {
      "type": "error",
      "name": "NotInitializing",
      "inputs": []
    },
    {
      "type": "error",
      "name": "OwnableInvalidOwner",
      "inputs": [
        {
          "name": "owner",
          "type": "address",
          "internalType": "address"
        }
      ]
    },
    {
      "type": "error",
      "name": "OwnableUnauthorizedAccount",
      "inputs": [
        {
          "name": "account",
          "type": "address",
          "internalType": "address"
        }
      ]
    }
  ],
  "bytecode": {
    "object": "0x6080806040523460aa575f5160206111455f395f51905f525460ff8160401c16609b576002600160401b03196001600160401b038216016049575b60405161109690816100af8239f35b6001600160401b0319166001600160401b039081175f5160206111455f395f51905f525581527fc7f505b2f371ae2175ee4913f4499e1f2633a7b5936321eed1cdaeb6115181d290602090a15f80603a565b63f92ee8a960e01b5f5260045ffd5b5f80fdfe6080806040526004361015610012575f80fd5b5f3560e01c90816318b981fc14610d79575080631d20650814610cdc57806324e922aa14610cb45780632f38992214610ace5780633f4ba83a14610a5057806351397ffe146108435780635c975abb146108155780635ea3550f146107c3578063715018a61461074657806379ba5097146106f85780638456cb59146106875780638da5cb5b14610653578063a6c8a38414610308578063c4d66de814610188578063e30c3978146101545763f2fde38b146100cc575f80fd5b34610150576020366003190112610150576100e5610dd3565b6100ed610f03565b5f5160206110415f395f51905f5280546001600160a01b0319166001600160a01b039283169081179091555f516020610fe15f395f51905f52549091167f38d16b8cac22d99fc7c124b9cd0de2d3fa1faef420bfe791d8c362d765e227005f80a3005b5f80fd5b34610150575f366003190112610150575f5160206110415f395f51905f52546040516001600160a01b039091168152602090f35b34610150576020366003190112610150576101a1610dd3565b5f5160206110215f395f51905f52549060ff8260401c16159167ffffffffffffffff811680159081610300575b60011490816102f6575b1590816102ed575b506102de5767ffffffffffffffff1981166001175f5160206110215f395f51905f5255826102b2575b50610212610fb5565b61021a610fb5565b6001600160a01b0381161561029f5761023290610f4a565b61023a610fb5565b610242610fb5565b61024857005b68ff0000000000000000195f5160206110215f395f51905f5254165f5160206110215f395f51905f52557fc7f505b2f371ae2175ee4913f4499e1f2633a7b5936321eed1cdaeb6115181d2602060405160018152a1005b631e4fbdf760e01b5f525f60045260245ffd5b68ffffffffffffffffff191668010000000000000001175f5160206110215f395f51905f525582610209565b63f92ee8a960e01b5f5260045ffd5b905015846101e0565b303b1591506101d8565b8491506101ce565b3461015057604036600319011261015057610321610dd3565b6024359067ffffffffffffffff821161015057366023830112156101505781600401359067ffffffffffffffff821161015057366024838501011161015057610368610f23565b6001600160a01b0316801561064457811561063557335f52600160205260405f2080545f198114610621576001019055335f52600160205260405f205460405160208101913383526040820152466060820152606081526103ca608082610e05565b51902091825f525f60205260ff600360405f2001541661061257610409604051946103f486610de9565b33865260208601928484526024369201610e27565b60408581019182526001606087018181525f608089018181524260a08b01908152898352602083905294909120985189546001600160a01b03199081166001600160a01b03928316178b559651938a0180549097169316929092179094559151805191939291600288019167ffffffffffffffff82116105fe57819061048f8454610ecb565b601f81116105ae575b50602090601f831160011461054b575f92610540575b50508160011b915f199060031b1c19161790555b600386019151151560ff801984541691161782555192600484101561052c5760209560047f71ef82f4d8c1d0e7d595951a0ed57ed7232d28b1f13c9106d26ca7ae31001164946105158897604096610e6d565b5191015581519033825286820152a2604051908152f35b634e487b7160e01b5f52602160045260245ffd5b0151905089806104ae565b5f8581528281209350601f198516905b818110610596575090846001959493921061057e575b505050811b0190556104c2565b01515f1960f88460031b161c19169055898080610571565b9293602060018192878601518155019501930161055b565b909150835f5260205f20601f840160051c810191602085106105f4575b90601f859493920160051c01905b8181106105e65750610498565b5f81558493506001016105d9565b90915081906105cb565b634e487b7160e01b5f52604160045260245ffd5b6383049dfd60e01b5f5260045ffd5b634e487b7160e01b5f52601160045260245ffd5b63ffca4b2d60e01b5f5260045ffd5b6398d69f2560e01b5f5260045ffd5b34610150575f366003190112610150575f516020610fe15f395f51905f52546040516001600160a01b039091168152602090f35b34610150575f3660031901126101505761069f610f03565b6106a7610f23565b600160ff195f5160206110015f395f51905f525416175f5160206110015f395f51905f52557f62e78cea01bee320cd4e420270b5ea74000d11b0c9f74754ebdbfc544b05a2586020604051338152a1005b34610150575f366003190112610150575f5160206110415f395f51905f5254336001600160a01b03909116036107335761073133610f4a565b005b63118cdaa760e01b5f523360045260245ffd5b34610150575f3660031901126101505761075e610f03565b5f5160206110415f395f51905f5280546001600160a01b03199081169091555f516020610fe15f395f51905f52805491821690555f906001600160a01b03167f8be0079c531659141344cd1fd0a4f28419497f9722a3daafe3b4186f6b6457e08280a3005b3461015057602036600319011261015057600435805f525f60205260ff600360405f2001541615610806575f525f6020526020600460405f200154604051908152f35b63070a414560e41b5f5260045ffd5b34610150575f36600319011261015057602060ff5f5160206110015f395f51905f5254166040519015158152f35b34610150576060366003190112610150576024356001600160a01b03811690600435908290036101505760443567ffffffffffffffff811161015057366023820112156101505761089e903690602481600401359101610e27565b916108a7610f23565b815f525f60205260405f206108bb83610e8c565b82156106445760ff600383015416156108065781546001600160a01b03163303610a41578451156106355715610a325760029160018201906bffffffffffffffffffffffff60a01b82541617905501825167ffffffffffffffff81116105fe576109258254610ecb565b601f81116109ed575b506020601f821160011461098c57819293945f92610981575b50508160011b915f199060031b1c19161790555b7fbb3b2eb559c2003bd8feff754f7372c4cdc22fb3481b3d14026c53c875eb3d6b5f80a2005b015190508480610947565b601f19821690835f52805f20915f5b8181106109d5575095836001959697106109bd575b505050811b01905561095b565b01515f1960f88460031b161c191690558480806109b0565b9192602060018192868b01518155019401920161099b565b825f5260205f20601f830160051c81019160208410610a28575b601f0160051c01905b818110610a1d575061092e565b5f8155600101610a10565b9091508190610a07565b63f92be2a560e01b5f5260045ffd5b630d3dc0bb60e41b5f5260045ffd5b34610150575f36600319011261015057610a68610f03565b5f5160206110015f395f51905f525460ff811615610abf5760ff19165f5160206110015f395f51905f52557f5db9ee0a495bf2e6ff9c91a7834c1ba4fdd244a5e8aa4e537bd38aeae4b073aa6020604051338152a1005b638dfc202b60e01b5f5260045ffd5b34610150576020366003190112610150576004355f60a0604051610af181610de9565b828152826020820152606060408201528260608201528260808201520152805f525f60205260ff600360405f2001541615610806575f525f60205260405f2060405190610b3d82610de9565b80546001600160a01b039081168352600182015416602083019081526040516002830180549294919391929084905f90610b7684610ecb565b8084529360018116908115610c925750600114610c4e575b50610b9b92500384610e05565b6040820192835260038101549260ff60608401948181161515865260081c169160808401600484101561052c579283526004015460a0840190815260408051602080825295516001600160a01b0390811682880152975190971690870152905160c06060870152805160e087018190526101009587959194610c3a9390928691018789015e5f87868801015251151560808601525160a0850190610dc6565b5160c0830152601f01601f19168101030190f35b90505f9291925260205f20905f915b818310610c76575050906020610b9b9282010187610b8e565b6020919350806001915483858a01015201910190918592610c5d565b905060209250610b9b94915060ff191682840152151560051b82010187610b8e565b34610150576020366003190112610150576020610cd2600435610e8c565b6040519015158152f35b3461015057604036600319011261015057600435602435600481101561015057610d04610f03565b610d0c610f23565b815f525f602052600360405f20019081549160ff83161561080657610d7682610d6c7f2b13d71d3626fce95a015b9f1758cad49dad02c848bf55afc4102cb0ddb0b3af95610d5e60409660ff96610e6d565b855194859160081c16610dc6565b6020830190610dc6565ba2005b346101505760203660031901126101505760043590815f525f60205260ff600360405f2001541615610806576020915f525f8252610dc48160ff600360405f20015460081c16610dc6565bf35b90600482101561052c5752565b600435906001600160a01b038216820361015057565b60c0810190811067ffffffffffffffff8211176105fe57604052565b90601f8019910116810190811067ffffffffffffffff8211176105fe57604052565b92919267ffffffffffffffff82116105fe5760405191610e51601f8201601f191660200184610e05565b829481845281830111610150578281602093845f960137010152565b90600481101561052c5761ff0082549160081b169061ff001916179055565b805f525f60205260ff600360405f2001541615610ec6575f525f60205260ff600360405f20015460081c16600481101561052c5760011490565b505f90565b90600182811c92168015610ef9575b6020831014610ee557565b634e487b7160e01b5f52602260045260245ffd5b91607f1691610eda565b5f516020610fe15f395f51905f52546001600160a01b0316330361073357565b60ff5f5160206110015f395f51905f525416610f3b57565b63d93c066560e01b5f5260045ffd5b5f5160206110415f395f51905f5280546001600160a01b03199081169091555f516020610fe15f395f51905f5280549182166001600160a01b0393841690811790915591167f8be0079c531659141344cd1fd0a4f28419497f9722a3daafe3b4186f6b6457e05f80a3565b60ff5f5160206110215f395f51905f525460401c1615610fd157565b631afcd79f60e31b5f5260045ffdfe9016d09d72d40fdae2fd8ceac6b6234c7706214fd39c1cd1e609a0528c199300cd5ed15c6e187e77e9aee88184c21f4f2182ab5827cb3b7e07fbedcd63f03300f0c57e16840df040f15088dc2f81fe391c3923bec73e23a9662efc9c229c6a00237e158222e3e6968b72b9db0d8043aacf074ad9f650f0d1606b4d82ee432c00a264697066735822122004acffd4f652de86d7b9d4fa39836d99e7c11a41d92b1b2e989dc197b7ba0f9664736f6c634300081e0033f0c57e16840df040f15088dc2f81fe391c3923bec73e23a9662efc9c229c6a00",
    "linkReferences": {}
  },
  "methodIdentifiers": {
    "acceptOwnership()": "79ba5097",
    "getMerchantCreatedAt(bytes32)": "5ea3550f",
    "getMerchantInfo(bytes32)": "2f389922",
    "getMerchantVerificationStatus(bytes32)": "18b981fc",
    "initialize(address)": "c4d66de8",
    "isMerchantVerified(bytes32)": "24e922aa",
    "owner()": "8da5cb5b",
    "pause()": "8456cb59",
    "paused()": "5c975abb",
    "pendingOwner()": "e30c3978",
    "registerMerchant(address,string)": "a6c8a384",
    "renounceOwnership()": "715018a6",
    "transferOwnership(address)": "f2fde38b",
    "unpause()": "3f4ba83a",
    "updateMerchant(bytes32,address,string)": "51397ffe",
    "updateMerchantVerificationStatus(bytes32,uint8)": "1d206508"
  },
  "storageLayout": {
    "storage": [
      {
        "astId": 50851,
        "contract": "src/contracts/MerchantRegistry.sol:MerchantRegistry",
        "label": "merchant",
        "offset": 0,
        "slot": "0",
        "type": "t_mapping(t_bytes32,t_struct(Merchant)53009_storage)"
      },
      {
        "astId": 50855,
        "contract": "src/contracts/MerchantRegistry.sol:MerchantRegistry",
        "label": "_nonce",
        "offset": 0,
        "slot": "1",
        "type": "t_mapping(t_address,t_uint256)"
      },
      {
        "astId": 50859,
        "contract": "src/contracts/MerchantRegistry.sol:MerchantRegistry",
        "label": "_gap",
        "offset": 0,
        "slot": "2",
        "type": "t_array(t_uint256)50_storage"
      }
    ],
    "types": {
      "t_address": {
        "encoding": "inplace",
        "label": "address",
        "numberOfBytes": "20"
      },
      "t_array(t_uint256)50_storage": {
        "encoding": "inplace",
        "label": "uint256[50]",
        "numberOfBytes": "1600",
        "base": "t_uint256"
      },
      "t_bool": {
        "encoding": "inplace",
        "label": "bool",
        "numberOfBytes": "1"
      },
      "t_bytes32": {
        "encoding": "inplace",
        "label": "bytes32",
        "numberOfBytes": "32"
      },
      "t_enum(VerificationStatus)52994": {
        "encoding": "inplace",
        "label": "enum IMerchantRegistry.VerificationStatus",
        "numberOfBytes": "1"
      },
      "t_mapping(t_address,t_uint256)": {
        "encoding": "mapping",
        "key": "t_address",
        "label": "mapping(address => uint256)",
        "numberOfBytes": "32",
        "value": "t_uint256"
      },
      "t_mapping(t_bytes32,t_struct(Merchant)53009_storage)": {
        "encoding": "mapping",
        "key": "t_bytes32",
        "label": "mapping(bytes32 => struct IMerchantRegistry.Merchant)",
        "numberOfBytes": "32",
        "value": "t_struct(Merchant)53009_storage"
      },
      "t_string_storage": {
        "encoding": "bytes",
        "label": "string",
        "numberOfBytes": "32"
      },
      "t_struct(Merchant)53009_storage": {
        "encoding": "inplace",
        "label": "struct IMerchantRegistry.Merchant",
        "numberOfBytes": "160",
        "members": [
          {
            "astId": 52997,
            "contract": "src/contracts/MerchantRegistry.sol:MerchantRegistry",
            "label": "owner",
            "offset": 0,
            "slot": "0",
            "type": "t_address"
          },
          {
            "astId": 52999,
            "contract": "src/contracts/MerchantRegistry.sol:MerchantRegistry",
            "label": "payoutWallet",
            "offset": 0,
            "slot": "1",
            "type": "t_address"
          },
          {
            "astId": 53001,
            "contract": "src/contracts/MerchantRegistry.sol:MerchantRegistry",
            "label": "metadataURI",
            "offset": 0,
            "slot": "2",
            "type": "t_string_storage"
          },
          {
            "astId": 53003,
            "contract": "src/contracts/MerchantRegistry.sol:MerchantRegistry",
            "label": "exists",
            "offset": 0,
            "slot": "3",
            "type": "t_bool"
          },
          {
            "astId": 53006,
            "contract": "src/contracts/MerchantRegistry.sol:MerchantRegistry",
            "label": "verificationStatus",
            "offset": 1,
            "slot": "3",
            "type": "t_enum(VerificationStatus)52994"
          },
          {
            "astId": 53008,
            "contract": "src/contracts/MerchantRegistry.sol:MerchantRegistry",
            "label": "createdAt",
            "offset": 0,
            "slot": "4",
            "type": "t_uint256"
          }
        ]
      },
      "t_uint256": {
        "encoding": "inplace",
        "label": "uint256",
        "numberOfBytes": "32"
      }
    }
  },
  "id": 65
}