{
  "abi": [
    {
      "type": "constructor",
      "inputs": [],
      "stateMutability": "nonpayable"
    },
    {
      "type": "function",
      "name": "acceptOwnership",
      "inputs": [],
      "outputs": [],
      "stateMutability": "nonpayable"
    },
    {
      "type": "function",
      "name": "cancelOrder",
      "inputs": [
        {
          "name": "_orderId",
          "type": "bytes32",
          "internalType": "bytes32"
        }
      ],
      "outputs": [
        {
          "name": "",
          "type": "bool",
          "internalType": "bool"
        }
      ],
      "stateMutability": "nonpayable"
    },
    {
      "type": "function",
      "name": "createOrder",
      "inputs": [
        {
          "name": "_merchantId",
          "type": "bytes32",
          "internalType": "bytes32"
        },
        {
          "name": "_token",
          "type": "address",
          "internalType": "address"
        },
        {
          "name": "_amount",
          "type": "uint256",
          "internalType": "uint256"
        },
        {
          "name": "_metadataUri",
          "type": "string",
          "internalType": "string"
        }
      ],
      "outputs": [
        {
          "name": "_orderId",
          "type": "bytes32",
          "internalType": "bytes32"
        }
      ],
      "stateMutability": "nonpayable"
    },
    {
      "type": "function",
      "name": "defaultPlatformFeeBps",
      "inputs": [],
      "outputs": [
        {
          "name": "",
          "type": "uint256",
          "internalType": "uint256"
        }
      ],
      "stateMutability": "view"
    },
    {
      "type": "function",
      "name": "emergencyWithdraw",
      "inputs": [
        {
          "name": "token",
          "type": "address",
          "internalType": "address"
        },
        {
          "name": "to",
          "type": "address",
          "internalType": "address"
        },
        {
          "name": "amount",
          "type": "uint256",
          "internalType": "uint256"
        }
      ],
      "outputs": [],
      "stateMutability": "nonpayable"
    },
    {
      "type": "function",
      "name": "emergencyWithdrawalEnabled",
      "inputs": [],
      "outputs": [
        {
          "name": "",
          "type": "bool",
          "internalType": "bool"
        }
      ],
      "stateMutability": "view"
    },
    {
      "type": "function",
      "name": "getContractTokenBalance",
      "inputs": [
        {
          "name": "token",
          "type": "address",
          "internalType": "address"
        }
      ],
      "outputs": [
        {
          "name": "",
          "type": "uint256",
          "internalType": "uint256"
        }
      ],
      "stateMutability": "view"
    },
    {
      "type": "function",
      "name": "getMerchantTokenBalance",
      "inputs": [
        {
          "name": "merchant",
          "type": "address",
          "internalType": "address"
        },
        {
          "name": "token",
          "type": "address",
          "internalType": "address"
        }
      ],
      "outputs": [
        {
          "name": "",
          "type": "uint256",
          "internalType": "uint256"
        }
      ],
      "stateMutability": "view"
    },
    {
      "type": "function",
      "name": "getOrder",
      "inputs": [
        {
          "name": "orderId",
          "type": "bytes32",
          "internalType": "bytes32"
        }
      ],
      "outputs": [
        {
          "name": "",
          "type": "tuple",
          "internalType": "struct IPaymentProcessor.Order",
          "components": [
            {
              "name": "payer",
              "type": "address",
              "internalType": "address"
            },
            {
              "name": "token",
              "type": "address",
              "internalType": "address"
            },
            {
              "name": "merchantId",
              "type": "bytes32",
              "internalType": "bytes32"
            },
            {
              "name": "merchantPayout",
              "type": "address",
              "internalType": "address"
            },
            {
              "name": "amount",
              "type": "uint256",
              "internalType": "uint256"
            },
            {
              "name": "exists",
              "type": "bool",
              "internalType": "bool"
            },
            {
              "name": "currentBps",
              "type": "uint96",
              "internalType": "uint96"
            },
            {
              "name": "createdAt",
              "type": "uint256",
              "internalType": "uint256"
            },
            {
              "name": "metadataUri",
              "type": "string",
              "internalType": "string"
            },
            {
              "name": "status",
              "type": "uint8",
              "internalType": "enum IPaymentProcessor.OrderStatus"
            }
          ]
        }
      ],
      "stateMutability": "view"
    },
    {
      "type": "function",
      "name": "getOrderCreatedAt",
      "inputs": [
        {
          "name": "orderId",
          "type": "bytes32",
          "internalType": "bytes32"
        }
      ],
      "outputs": [
        {
          "name": "createdAt",
          "type": "uint256",
          "internalType": "uint256"
        }
      ],
      "stateMutability": "view"
    },
    {
      "type": "function",
      "name": "getOrderRemainingTime",
      "inputs": [
        {
          "name": "orderId",
          "type": "bytes32",
          "internalType": "bytes32"
        }
      ],
      "outputs": [
        {
          "name": "remainingTime",
          "type": "uint256",
          "internalType": "uint256"
        }
      ],
      "stateMutability": "view"
    },
    {
      "type": "function",
      "name": "getOrderStatus",
      "inputs": [
        {
          "name": "orderId",
          "type": "bytes32",
          "internalType": "bytes32"
        }
      ],
      "outputs": [
        {
          "name": "",
          "type": "uint8",
          "internalType": "enum IPaymentProcessor.OrderStatus"
        }
      ],
      "stateMutability": "view"
    },
    {
      "type": "function",
      "name": "getPlatformTokenBalance",
      "inputs": [
        {
          "name": "token",
          "type": "address",
          "internalType": "address"
        }
      ],
      "outputs": [
        {
          "name": "",
          "type": "uint256",
          "internalType": "uint256"
        }
      ],
      "stateMutability": "view"
    },
    {
      "type": "function",
      "name": "getPlatformWallet",
      "inputs": [],
      "outputs": [
        {
          "name": "",
          "type": "address",
          "internalType": "address"
        }
      ],
      "stateMutability": "view"
    },
    {
      "type": "function",
      "name": "initialize",
      "inputs": [
        {
          "name": "_platformWallet",
          "type": "address",
          "internalType": "address"
        },
        {
          "name": "_defaultPlatformFeeBps",
          "type": "uint256",
          "internalType": "uint256"
        },
        {
          "name": "_merchantRegistry",
          "type": "address",
          "internalType": "address"
        },
        {
          "name": "_orderExpirationTime",
          "type": "uint256",
          "internalType": "uint256"
        },
        {
          "name": "initialOwner",
          "type": "address",
          "internalType": "address"
        }
      ],
      "outputs": [],
      "stateMutability": "nonpayable"
    },
    {
      "type": "function",
      "name": "isOrderExpired",
      "inputs": [
        {
          "name": "orderId",
          "type": "bytes32",
          "internalType": "bytes32"
        }
      ],
      "outputs": [
        {
          "name": "expired",
          "type": "bool",
          "internalType": "bool"
        }
      ],
      "stateMutability": "view"
    },
    {
      "type": "function",
      "name": "isTokenSupported",
      "inputs": [
        {
          "name": "_token",
          "type": "address",
          "internalType": "address"
        }
      ],
      "outputs": [
        {
          "name": "",
          "type": "bool",
          "internalType": "bool"
        }
      ],
      "stateMutability": "view"
    },
    {
      "type": "function",
      "name": "merchantRegistry",
      "inputs": [],
      "outputs": [
        {
          "name": "",
          "type": "address",
          "internalType": "contract MerchantRegistry"
        }
      ],
      "stateMutability": "view"
    },
    {
      "type": "function",
      "name": "orderExpirationTime",
      "inputs": [],
      "outputs": [
        {
          "name": "",
          "type": "uint256",
          "internalType": "uint256"
        }
      ],
      "stateMutability": "view"
    },
    {
      "type": "function",
      "name": "owner",
      "inputs": [],
      "outputs": [
        {
          "name": "",
          "type": "address",
          "internalType": "address"
        }
      ],
      "stateMutability": "view"
    },
    {
      "type": "function",
      "name": "pause",
      "inputs": [],
      "outputs": [],
      "stateMutability": "nonpayable"
    },
    {
      "type": "function",
      "name": "paused",
      "inputs": [],
      "outputs": [
        {
          "name": "",
          "type": "bool",
          "internalType": "bool"
        }
      ],
      "stateMutability": "view"
    },
    {
      "type": "function",
      "name": "payOrder",
      "inputs": [
        {
          "name": "_orderId",
          "type": "bytes32",
          "internalType": "bytes32"
        }
      ],
      "outputs": [
        {
          "name": "",
          "type": "bool",
          "internalType": "bool"
        }
      ],
      "stateMutability": "nonpayable"
    },
    {
      "type": "function",
      "name": "pendingOwner",
      "inputs": [],
      "outputs": [
        {
          "name": "",
          "type": "address",
          "internalType": "address"
        }
      ],
      "stateMutability": "view"
    },
    {
      "type": "function",
      "name": "refundOrder",
      "inputs": [
        {
          "name": "_orderId",
          "type": "bytes32",
          "internalType": "bytes32"
        }
      ],
      "outputs": [
        {
          "name": "",
          "type": "bool",
          "internalType": "bool"
        }
      ],
      "stateMutability": "nonpayable"
    },
    {
      "type": "function",
      "name": "renounceOwnership",
      "inputs": [],
      "outputs": [],
      "stateMutability": "nonpayable"
    },
    {
      "type": "function",
      "name": "setEmergencyWithdrawalEnabled",
      "inputs": [
        {
          "name": "enabled",
          "type": "bool",
          "internalType": "bool"
        }
      ],
      "outputs": [],
      "stateMutability": "nonpayable"
    },
    {
      "type": "function",
      "name": "setTokenSupport",
      "inputs": [
        {
          "name": "token",
          "type": "address",
          "internalType": "address"
        },
        {
          "name": "status",
          "type": "uint256",
          "internalType": "uint256"
        }
      ],
      "outputs": [],
      "stateMutability": "nonpayable"
    },
    {
      "type": "function",
      "name": "settleOrder",
      "inputs": [
        {
          "name": "_orderId",
          "type": "bytes32",
          "internalType": "bytes32"
        }
      ],
      "outputs": [
        {
          "name": "",
          "type": "bool",
          "internalType": "bool"
        }
      ],
      "stateMutability": "nonpayable"
    },
    {
      "type": "function",
      "name": "transferOwnership",
      "inputs": [
        {
          "name": "newOwner",
          "type": "address",
          "internalType": "address"
        }
      ],
      "outputs": [],
      "stateMutability": "nonpayable"
    },
    {
      "type": "function",
      "name": "unpause",
      "inputs": [],
      "outputs": [],
      "stateMutability": "nonpayable"
    },
    {
      "type": "function",
      "name": "updateMerchantRegistry",
      "inputs": [
        {
          "name": "newRegistry",
          "type": "address",
          "internalType": "address"
        }
      ],
      "outputs": [],
      "stateMutability": "nonpayable"
    },
    {
      "type": "function",
      "name": "updateOrderExpirationTime",
      "inputs": [
        {
          "name": "newExpirationTime",
          "type": "uint256",
          "internalType": "uint256"
        }
      ],
      "outputs": [],
      "stateMutability": "nonpayable"
    },
    {
      "type": "function",
      "name": "updateProtocolAddress",
      "inputs": [
        {
          "name": "what",
          "type": "bytes32",
          "internalType": "bytes32"
        },
        {
          "name": "value",
          "type": "address",
          "internalType": "address"
        }
      ],
      "outputs": [],
      "stateMutability": "nonpayable"
    },
    {
      "type": "event",
      "name": "EmergencyWithdrawalEnabledUpdated",
      "inputs": [
        {
          "name": "enabled",
          "type": "bool",
          "indexed": false,
          "internalType": "bool"
        }
      ],
      "anonymous": false
    },
    {
      "type": "event",
      "name": "EmergencyWithdrawalSuccess",
      "inputs": [
        {
          "name": "token",
          "type": "address",
          "indexed": true,
          "internalType": "address"
        },
        {
          "name": "to",
          "type": "address",
          "indexed": true,
          "internalType": "address"
        },
        {
          "name": "amount",
          "type": "uint256",
          "indexed": false,
          "internalType": "uint256"
        }
      ],
      "anonymous": false
    },
    {
      "type": "event",
      "name": "Initialized",
      "inputs": [
        {
          "name": "version",
          "type": "uint64",
          "indexed": false,
          "internalType": "uint64"
        }
      ],
      "anonymous": false
    },
    {
      "type": "event",
      "name": "MaxSlippageBpsUpdated",
      "inputs": [
        {
          "name": "oldSlippage",
          "type": "uint256",
          "indexed": false,
          "internalType": "uint256"
        },
        {
          "name": "newSlippage",
          "type": "uint256",
          "indexed": false,
          "internalType": "uint256"
        }
      ],
      "anonymous": false
    },
    {
      "type": "event",
      "name": "MerchantRegistryUpdated",
      "inputs": [
        {
          "name": "oldRegistry",
          "type": "address",
          "indexed": true,
          "internalType": "address"
        },
        {
          "name": "newRegistry",
          "type": "address",
          "indexed": true,
          "internalType": "address"
        }
      ],
      "anonymous": false
    },
    {
      "type": "event",
      "name": "OrderCancelled",
      "inputs": [
        {
          "name": "orderId",
          "type": "bytes32",
          "indexed": true,
          "internalType": "bytes32"
        },
        {
          "name": "payer",
          "type": "address",
          "indexed": true,
          "internalType": "address"
        },
        {
          "name": "amount",
          "type": "uint256",
          "indexed": false,
          "internalType": "uint256"
        }
      ],
      "anonymous": false
    },
    {
      "type": "event",
      "name": "OrderCreated",
      "inputs": [
        {
          "name": "orderId",
          "type": "bytes32",
          "indexed": true,
          "internalType": "bytes32"
        },
        {
          "name": "payer",
          "type": "address",
          "indexed": true,
          "internalType": "address"
        },
        {
          "name": "merchantId",
          "type": "bytes32",
          "indexed": true,
          "internalType": "bytes32"
        },
        {
          "name": "merchantPayout",
          "type": "address",
          "indexed": false,
          "internalType": "address"
        },
        {
          "name": "token",
          "type": "address",
          "indexed": false,
          "internalType": "address"
        },
        {
          "name": "amount",
          "type": "uint256",
          "indexed": false,
          "internalType": "uint256"
        },
        {
          "name": "status",
          "type": "uint8",
          "indexed": false,
          "internalType": "enum IPaymentProcessor.OrderStatus"
        },
        {
          "name": "metadataUri",
          "type": "string",
          "indexed": false,
          "internalType": "string"
        }
      ],
      "anonymous": false
    },
    {
      "type": "event",
      "name": "OrderExpirationTimeUpdated",
      "inputs": [
        {
          "name": "oldTime",
          "type": "uint256",
          "indexed": false,
          "internalType": "uint256"
        },
        {
          "name": "newTime",
          "type": "uint256",
          "indexed": false,
          "internalType": "uint256"
        }
      ],
      "anonymous": false
    },
    {
      "type": "event",
      "name": "OrderExpired",
      "inputs": [
        {
          "name": "orderId",
          "type": "bytes32",
          "indexed": true,
          "internalType": "bytes32"
        },
        {
          "name": "payer",
          "type": "address",
          "indexed": true,
          "internalType": "address"
        }
      ],
      "anonymous": false
    },
    {
      "type": "event",
      "name": "OrderPaid",
      "inputs": [
        {
          "name": "orderId",
          "type": "bytes32",
          "indexed": true,
          "internalType": "bytes32"
        },
        {
          "name": "payer",
          "type": "address",
          "indexed": true,
          "internalType": "address"
        },
        {
          "name": "amount",
          "type": "uint256",
          "indexed": false,
          "internalType": "uint256"
        },
        {
          "name": "status",
          "type": "uint8",
          "indexed": false,
          "internalType": "enum IPaymentProcessor.OrderStatus"
        }
      ],
      "anonymous": false
    },
    {
      "type": "event",
      "name": "OrderRefunded",
      "inputs": [
        {
          "name": "orderId",
          "type": "bytes32",
          "indexed": true,
          "internalType": "bytes32"
        },
        {
          "name": "payer",
          "type": "address",
          "indexed": true,
          "internalType": "address"
        },
        {
          "name": "amount",
          "type": "uint256",
          "indexed": false,
          "internalType": "uint256"
        }
      ],
      "anonymous": false
    },
    {
      "type": "event",
      "name": "OrderSettled",
      "inputs": [
        {
          "name": "orderId",
          "type": "bytes32",
          "indexed": true,
          "internalType": "bytes32"
        },
        {
          "name": "merchant",
          "type": "address",
          "indexed": true,
          "internalType": "address"
        },
        {
          "name": "payer",
          "type": "address",
          "indexed": false,
          "internalType": "address"
        },
        {
          "name": "netAmount",
          "type": "uint256",
          "indexed": false,
          "internalType": "uint256"
        },
        {
          "name": "fee",
          "type": "uint256",
          "indexed": false,
          "internalType": "uint256"
        },
        {
          "name": "status",
          "type": "uint8",
          "indexed": false,
          "internalType": "enum IPaymentProcessor.OrderStatus"
        }
      ],
      "anonymous": false
    },
    {
      "type": "event",
      "name": "OwnershipTransferStarted",
      "inputs": [
        {
          "name": "previousOwner",
          "type": "address",
          "indexed": true,
          "internalType": "address"
        },
        {
          "name": "newOwner",
          "type": "address",
          "indexed": true,
          "internalType": "address"
        }
      ],
      "anonymous": false
    },
    {
      "type": "event",
      "name": "OwnershipTransferred",
      "inputs": [
        {
          "name": "previousOwner",
          "type": "address",
          "indexed": true,
          "internalType": "address"
        },
        {
          "name": "newOwner",
          "type": "address",
          "indexed": true,
          "internalType": "address"
        }
      ],
      "anonymous": false
    },
    {
      "type": "event",
      "name": "Paused",
      "inputs": [
        {
          "name": "account",
          "type": "address",
          "indexed": false,
          "internalType": "address"
        }
      ],
      "anonymous": false
    },
    {
      "type": "event",
      "name": "ProtocolAddressUpdated",
      "inputs": [
        {
          "name": "what",
          "type": "bytes32",
          "indexed": true,
          "internalType": "bytes32"
        },
        {
          "name": "platformWallet",
          "type": "address",
          "indexed": true,
          "internalType": "address"
        }
      ],
      "anonymous": false
    },
    {
      "type": "event",
      "name": "TokenSupportUpdated",
      "inputs": [
        {
          "name": "token",
          "type": "bytes32",
          "indexed": true,
          "internalType": "bytes32"
        },
        {
          "name": "supported",
          "type": "bool",
          "indexed": false,
          "internalType": "bool"
        }
      ],
      "anonymous": false
    },
    {
      "type": "event",
      "name": "Unpaused",
      "inputs": [
        {
          "name": "account",
          "type": "address",
          "indexed": false,
          "internalType": "address"
        }
      ],
      "anonymous": false
    },
    {
      "type": "error",
      "name": "EnforcedPause",
      "inputs": []
    },
    {
      "type": "error",
      "name": "ExpectedPause",
      "inputs": []
    },
    {
      "type": "error",
      "name": "InvalidInitialization",
      "inputs": []
    },
    {
      "type": "error",
      "name": "NotInitializing",
      "inputs": []
    },
    {
      "type": "error",
      "name": "OwnableInvalidOwner",
      "inputs": [
        {
          "name": "owner",
          "type": "address",
          "internalType": "address"
        }
      ]
    },
    {
      "type": "error",
      "name": "OwnableUnauthorizedAccount",
      "inputs": [
        {
          "name": "account",
          "type": "address",
          "internalType": "address"
        }
      ]
    },
    {
      "type": "error",
      "name": "PaymentProcessor__EmergencyDisabled",
      "inputs": []
    },
    {
      "type": "error",
      "name": "PaymentProcessor__EmergencyWithdrawalFailed",
      "inputs": []
    },
    {
      "type": "error",
      "name": "PaymentProcessor__InsufficientBalance",
      "inputs": []
    },
    {
      "type": "error",
      "name": "PaymentProcessor__InvalidAmount",
      "inputs": []
    },
    {
      "type": "error",
      "name": "PaymentProcessor__InvalidMetadataUri",
      "inputs": []
    },
    {
      "type": "error",
      "name": "PaymentProcessor__InvalidStatus",
      "inputs": []
    },
    {
      "type": "error",
      "name": "PaymentProcessor__InvalidToken",
      "inputs": []
    },
    {
      "type": "error",
      "name": "PaymentProcessor__OrderAlreadyExists",
      "inputs": []
    },
    {
      "type": "error",
      "name": "PaymentProcessor__OrderExpired",
      "inputs": []
    },
    {
      "type": "error",
      "name": "PaymentProcessor__OrderNotFound",
      "inputs": []
    },
    {
      "type": "error",
      "name": "PaymentProcessor__ThrowZeroAddress",
      "inputs": []
    },
    {
      "type": "error",
      "name": "PaymentProcessor__TokenNotAllowed",
      "inputs": []
    },
    {
      "type": "error",
      "name": "PaymentProcessor__TransferFailed",
      "inputs": []
    },
    {
      "type": "error",
      "name": "PaymentProcessor__UnauthorizedAccess",
      "inputs": []
    },
    {
      "type": "error",
      "name": "PaymentProcessor__UnverifiedMerchant",
      "inputs": []
    },
    {
      "type": "error",
      "name": "ReentrancyGuardReentrantCall",
      "inputs": []
    },
    {
      "type": "error",
      "name": "SafeERC20FailedOperation",
      "inputs": [
        {
          "name": "token",
          "type": "address",
          "internalType": "address"
        }
      ]
    },
    {
      "type": "error",
      "name": "TokensManager__InvalidBps",
      "inputs": []
    },
    {
      "type": "error",
      "name": "TokensManager__InvalidProviderToMerchant",
      "inputs": []
    },
    {
      "type": "error",
      "name": "TokensManager__InvalidStatus",
      "inputs": []
    },
    {
      "type": "error",
      "name": "TokensManager__ThrowZeroAddress",
      "inputs": []
    },
    {
      "type": "error",
      "name": "TokensManager__TokenNotSupported",
      "inputs": []
    },
    {
      "type": "error",
      "name": "TokensManager__WalletAlreadySet",
      "inputs": []
    }
  ],
  "bytecode": {
    "object": "0x6080806040523460ce5760017f9b779b17422d0df92223018b32b4d1fa46e071723d6817e2486d003becc55f00555f5160206128a55f395f51905f525460ff8160401c1660bf576002600160401b03196001600160401b03821601606d575b6040516127d290816100d38239f35b6001600160401b0319166001600160401b039081175f5160206128a55f395f51905f525581527fc7f505b2f371ae2175ee4913f4499e1f2633a7b5936321eed1cdaeb6115181d290602090a15f80605e565b63f92ee8a960e01b5f5260045ffd5b5f80fdfe60806040526004361015610011575f80fd5b5f3560e01c806301904028146121295780630a66bb45146120c7578063116a1d9a14611d3957806314205e2814611cdc5780633f4ba83a14611c6e57806340ebc67714611bd157806346423aa714611b8257806349085d8c1461190d5780635778472a1461165b57806358504a36146114875780635c975abb146114595780636beccaf814610d275780636eca504214610cfb578063715018a614610c7e5780637489ec2314610b8857806375151b6314610b4d57806379ba509714610aff5780637fe4e8ee14610add5780638456cb5914610a6c57806385625ac3146109e65780638da5cb5b146109b2578063b2721bd714610957578063b8293da71461092f578063bc476cda146108db578063d76a09f4146108b3578063e251d7be14610680578063e30c39781461064c578063e63ea4081461047f578063e6d05b9314610462578063e9386b0b146103ed578063ed3b7e9f146103d0578063f2fde38b1461034c578063f3d94b8e146102735763f89248a41461018f575f80fd5b3461026f57604036600319011261026f576101a861214f565b602435906101b4612595565b6001600160a01b03811680156102605782151580610255575b610246577f475cd53258eb63abbbc7ae999308fd56beb3f4d5c002442aaa733a5010295618916020915f52600282528360405f205560405182810191643a37b5b2b760d91b83526001600160601b03199060601b166025820152601981526102366039826121dd565b51902092600160405191148152a2005b63fa60cc7f60e01b5f5260045ffd5b5060018314156101cd565b6349fecd7360e11b5f5260045ffd5b5f80fd5b3461026f57604036600319011261026f5761028c61214f565b610294612165565b906001600160a01b03168015801561033b575b61032c576040516370a0823160e01b8152600481019190915290602090829060249082906001600160a01b03165afa8015610321575f906102ee575b602090604051908152f35b506020813d602011610319575b81610308602093836121dd565b8101031261026f57602090516102e3565b3d91506102fb565b6040513d5f823e3d90fd5b633351ecbf60e21b5f5260045ffd5b506001600160a01b038216156102a7565b3461026f57602036600319011261026f5761036561214f565b61036d612595565b5f51602061277d5f395f51905f5280546001600160a01b0319166001600160a01b039283169081179091555f5160206126fd5f395f51905f52549091167f38d16b8cac22d99fc7c124b9cd0de2d3fa1faef420bfe791d8c362d765e227005f80a3005b3461026f575f36600319011261026f576020606654604051908152f35b3461026f57602036600319011261026f576001600160a01b0361040e61214f565b16801561045357602060018060a01b03600154166024604051809481936370a0823160e01b835260048301525afa8015610321575f906102ee57602090604051908152f35b634aa552d960e01b5f5260045ffd5b3461026f575f36600319011261026f576020606754604051908152f35b3461026f57606036600319011261026f5761049861214f565b6104a0612165565b90604435916104ad612595565b6104b56126a9565b6104bd6125b5565b60ff606854161561063d576001600160a01b031691821561032c576001600160a01b03821691821590811561061a575b50610453576040516370a0823160e01b8152306004820152602081602481865afa908115610321575f916105e8575b5081159081156105de575b506105cf576040519063a9059cbb60e01b5f52836004528060245260205f60448180875af160015f51148116156105b0575b826040521561059d57816020917f5814d775ec31b0c5da55427172ebb946182e8686a551ad58c3727593119c4e3d9352a360015f51602061273d5f395f51905f5255005b82635274afe760e01b5f5260045260245ffd5b60018115166105c657833b15153d151616610559565b823d5f823e3d90fd5b63b573282f60e01b5f5260045ffd5b9050811184610527565b90506020813d602011610612575b81610603602093836121dd565b8101031261026f57518461051c565b3d91506105f6565b6001600160a01b03165f90815260026020526040902054600114905015846104ed565b631d598cc760e01b5f5260045ffd5b3461026f575f36600319011261026f575f51602061277d5f395f51905f52546040516001600160a01b039091168152602090f35b3461026f5760a036600319011261026f5761069961214f565b6044356001600160a01b0381169060243582820361026f57606435926084356001600160a01b03811680820361026f575f51602061275d5f395f51905f52549660ff8860401c16159767ffffffffffffffff8116801590816108ab575b60011490816108a1575b159081610898575b506108895767ffffffffffffffff1981166001175f51602061275d5f395f51905f52558861085d575b50620186a05f556001600160a01b031692831561032c57620186a0851161084e571561032c5762015180861161083f576107696126d1565b6107716126d1565b1561082c5761077f9061263e565b6107876126d1565b61078f6126d1565b600180546001600160a01b031916919091179055606655606880546067939093556001600160a81b031990921660089190911b610100600160a81b03161790556107d557005b68ff0000000000000000195f51602061275d5f395f51905f5254165f51602061275d5f395f51905f52557fc7f505b2f371ae2175ee4913f4499e1f2633a7b5936321eed1cdaeb6115181d2602060405160018152a1005b631e4fbdf760e01b5f525f60045260245ffd5b6312ac68e160e21b5f5260045ffd5b634378f44f60e01b5f5260045ffd5b68ffffffffffffffffff191668010000000000000001175f51602061275d5f395f51905f525588610731565b63f92ee8a960e01b5f5260045ffd5b9050158a610708565b303b159150610700565b8a91506106f6565b3461026f575f36600319011261026f576001546040516001600160a01b039091168152602090f35b3461026f57602036600319011261026f57600435805f52603560205260ff600560405f2001541615610920575f5260356020526020600660405f200154604051908152f35b63e705f5e960e01b5f5260045ffd5b3461026f57602036600319011261026f57602061094d600435612428565b6040519015158152f35b3461026f57602036600319011261026f57600435610973612595565b801561084e5760407fa26f70a3d60aec5b16495eaa74529905fa4cc5f2aa8022f9991d07eb5885da0891606754908060675582519182526020820152a1005b3461026f575f36600319011261026f575f5160206126fd5f395f51905f52546040516001600160a01b039091168152602090f35b3461026f57602036600319011261026f576109ff61214f565b610a07612595565b6001600160a01b03811690811561032c5760688054610100600160a81b03198116600893841b610100600160a81b031617909155901c6001600160a01b03167f3c858684ec5e6e6fbc8550e3d904e0be2b41dcce856abe3f37c8f50c8865bb2a5f80a3005b3461026f575f36600319011261026f57610a84612595565b610a8c6125ed565b600160ff195f51602061271d5f395f51905f525416175f51602061271d5f395f51905f52557f62e78cea01bee320cd4e420270b5ea74000d11b0c9f74754ebdbfc544b05a2586020604051338152a1005b3461026f575f36600319011261026f57602060ff606854166040519015158152f35b3461026f575f36600319011261026f575f51602061277d5f395f51905f5254336001600160a01b0390911603610b3a57610b383361263e565b005b63118cdaa760e01b5f523360045260245ffd5b3461026f57602036600319011261026f57602061094d610b6b61214f565b6001600160a01b03165f9081526002602052604090205460011490565b3461026f57602036600319011261026f57600435610ba46125b5565b610bac6125ed565b610bb581612614565b805f52603560205260405f20906008820160ff8154166006811015610c6a57600103610c5b5782546001600160a01b03163303610c4c57600560ff198254161790557fb2705df32ac67fc3101f496cd7036bf59074a603544d97d73650b6f09744986a6020600460018060a01b03855416940154604051908152a360015f51602061273d5f395f51905f5255602060405160018152f35b6322129edf60e21b5f5260045ffd5b639073990960e01b5f5260045ffd5b634e487b7160e01b5f52602160045260245ffd5b3461026f575f36600319011261026f57610c96612595565b5f51602061277d5f395f51905f5280546001600160a01b03199081169091555f5160206126fd5f395f51905f52805491821690555f906001600160a01b03167f8be0079c531659141344cd1fd0a4f28419497f9722a3daafe3b4186f6b6457e08280a3005b3461026f575f36600319011261026f5760685460405160089190911c6001600160a01b03168152602090f35b3461026f57608036600319011261026f57600435610d43612165565b604435916064359167ffffffffffffffff831161026f573660238401121561026f5782600401359067ffffffffffffffff821161026f576024840193602483369201011161026f57610d936125b5565b610d9b6125ed565b6001600160a01b031692831561032c57835f526002602052600160405f20540361045357841561084e5760405163313ce56760e01b8152602081600481885afa5f918161141b575b50611416575060125b60ff8116600681036113ae5750506207a12064174876e800905b86109081156113a4575b5061084e578115611395576102008211611395576040516370a0823160e01b8152336004820152602081602481885afa80156103215786915f91611360575b50106105cf5760685460405163179c4c9160e11b815260048101859052905f908290602490829060081c6001600160a01b03165afa908115610321575f91611258575b50606081015115610c5b5760808101516004811015610c6a575f190161124957335f52603660205260405f2080545f198114611235576001019055335f52603660205260405f20546040516020810191338352604082015246606082015242608082015260808152610f0560a0826121dd565b51902094855f52603560205260ff600560405f200154166112265760208692019260018060a01b038451168560405191610f3e836121c0565b3383526020830190858252604084018a815260608501918252608085018d815260a08601926001845260c0870192620186a0845260e08801954287525f6020610f868a61240c565b99610f946040519b8c6121dd565b808b52808d838d01378a010152610100890197885260016101208a018181525f9d8e5260356020526040909d2099518a546001600160a01b039182166001600160a01b0319918216178c559251918b01805492821692841692909217909155915160028a01559151600389018054919092169216919091179055516004860155905160058501805492516cffffffffffffffffffffffff0060089190911b1691151560ff166cffffffffffffffffffffffffff1990931692909217179055516006830155518051600783019167ffffffffffffffff8211611212576110798354612188565b601f81116111cd575b50602090601f8311600114611166576008949392915f918361115b575b50508160011b915f199060031b1c19161790555b019251906006821015610c6a5760209888957f1b70765dd926c1ddb3b1ef39fe1af33547337283e270c9bc7c9c1caf8376377a95889460ff8019835416911617905560018060a01b03905116936040519485528a85015260408401526001606084015260a060808401528160a084015260c08301375f60c0858301015260c0813395601f80199101168101030190a460015f51602061273d5f395f51905f5255604051908152f35b015190508d8061109f565b90601f19831691845f52815f20925f5b8181106111b557509160019391856008989796941061119d575b505050811b0190556110b3565b01515f1960f88460031b161c191690558d8080611190565b92936020600181928786015181550195019301611176565b835f5260205f20601f840160051c81019160208510611208575b601f0160051c01905b8181106111fd5750611082565b5f81556001016111f0565b90915081906111e7565b634e487b7160e01b5f52604160045260245ffd5b6355e65f1560e11b5f5260045ffd5b634e487b7160e01b5f52601160045260245ffd5b637b16878760e11b5f5260045ffd5b90503d805f833e61126981836121dd565b81019060208183031261026f5780519067ffffffffffffffff821161026f570160c08183031261026f576040519160c0830183811067ffffffffffffffff821117611212576040526112ba826123f8565b83526112c8602083016123f8565b6020840152604082015167ffffffffffffffff811161026f57820181601f8201121561026f578051906112fa8261240c565b9261130860405194856121dd565b8284526020838301011161026f57815f9260208093018386015e830101526040830152611337606082016123eb565b6060830152608081015190600482101561026f5760a0916080840152015160a082015286610e92565b9150506020813d60201161138d575b8161137c602093836121dd565b8101031261026f5785905187610e4f565b3d915061136f565b630354f99160e11b5f5260045ffd5b9050851186610e10565b601281036113d25750506706f05b59d3b2000069152d02c7e14af680000090610e06565b5f190160ff8111611235576113e69061262d565b80600502906005820403611235576113fe909161262d565b80620186a00290620186a08204036112355790610e06565b610dec565b9091506020813d602011611451575b81611437602093836121dd565b8101031261026f575160ff8116810361026f579087610de3565b3d915061142a565b3461026f575f36600319011261026f57602060ff5f51602061271d5f395f51905f5254166040519015158152f35b3461026f57602036600319011261026f576004356114a36125b5565b6114ab6125ed565b6114b481612614565b805f52603560205260405f20906008820160ff8154166006811015610c6a57600103610c5b5782546001600160a01b03163303610c4c576114fc60068401546067549061220b565b421161161157600483810154600190940154825460ff19166002179092556040516323b872dd60e01b81523391810191909152306024820152604481018490529060209082906001600160a01b0316815f816064810103925af15f91816115d5575b506115725763ccfaded960e01b5f5260045ffd5b156115c657604051918252600260208301527f80465c2698455bc6862471ab072190da60f525bebba942641614691b53a8239d60403393a360015f51602061273d5f395f51905f5255602060405160018152f35b63ccfaded960e01b5f5260045ffd5b9091506020813d602011611609575b816115f1602093836121dd565b8101031261026f57611602906123eb565b908461155e565b3d91506115e4565b805460ff1916600517905581546001600160a01b0316907ffb3d3c72741d97a417c79513cde55af3d64dc8844cc5b59f470935843eceff4c5f80a36312ac68e160e21b5f5260045ffd5b3461026f57602036600319011261026f575f61012060405161167c816121c0565b8281528260208201528260408201528260608201528260808201528260a08201528260c08201528260e0820152606061010082015201526004355f52603560205260405f20604051906116ce826121c0565b60018060a01b0381541682528160018060a01b036001830154166020820190815260028301546040830190815260018060a01b03600385015416906060840191825260048501546080850190815260058601549260a086019260ff8516151584526001600160601b0360c088019560081c16855260068801549560e088019687526007890198604051998a5f91805461176681612188565b8093526001811690815f146118a1575060011461185d575b5050966020979661184f968b968d966101809c966117c961012060ff8f9e6001600160601b039a6101008f8f806117b99160089603906121dd565b019d8e520154169b019a8b6121ff565b6040519e8f9d8e9181835260018060a01b0390511691015260018060a01b0390511660408d01525160608c015260018060a01b0390511660808b01525160a08a015251151560c0890152511660e08701525161010086015251610140610120860152805193849182610160880152018686015e5f8584860101525161014084019061217b565b601f01601f19168101030190f35b5f908152602081209092505b8183106118855750508a01602001846001600160601b0361177e565b805460208e85018101919091528e9c5090920191600101611869565b8e9994506001600160601b0397925061184f9b9691506101206101809f60209f9c9760209f9b969060208f6117b98560ff96610100946008976117c99b8a191682840152151560051b8201019d99505050505050989d9f50505050989d509499509481969a9b5061177e565b3461026f57602036600319011261026f576004356119296125b5565b6119316125ed565b61193a81612614565b805f52603560205260405f20906008820160ff8154166006811015610c6a57600203610c5b576003830180546001600160a01b031633141580611b61575b610c4c576004840154936001808060a01b0391015416606654945f955f549081611b3d575b5050906119ab868093612218565b845460ff191660031790945583611ab5575b81611a2a575b50507f38d2bd53295e3b0b06d39a1d4d4e09ed446cdca372069f2403ea3c1409077eb69160809160018060a01b0390541694604051913383526020830152604082015260036060820152a360015f51602061273d5f395f51905f5255602060405160018152f35b60015460405163a9059cbb60e01b81526001600160a01b0390911660048201526024810192909252602090829060449082905f905af1908115610321575f91611a7b575b50156115c65783856119c3565b90506020813d602011611aad575b81611a96602093836121dd565b8101031261026f57611aa7906123eb565b85611a6e565b3d9150611a89565b825460405163a9059cbb60e01b81526001600160a01b039091166004820152602481018590529091506020816044815f865af1908115610321575f91611b03575b50156115c65784906119bd565b90506020813d602011611b35575b81611b1e602093836121dd565b8101031261026f57611b2f906123eb565b86611af6565b3d9150611b11565b6119ab975090611b52611b57928495946123ba565b6123cd565b958792919261199d565b505f5160206126fd5f395f51905f52546001600160a01b0316331415611978565b3461026f57602036600319011261026f57600435805f52603560205260ff600560405f2001541615610920575f526035602052602060ff600860405f20015416611bcf604051809261217b565bf35b3461026f57604036600319011261026f57600435611bed612165565b611bf5612595565b6001600160a01b03169081156102605767706c6174666f726d60c01b8103610246576001546001600160a01b0381168314611c5f576001600160a01b03191682176001557fbbc5b96e57cfecb3dbeeadf92e87f15e58e64fcd75cbe256dcc5d9ef2e51e8a45f80a3005b6308b9b03160e41b5f5260045ffd5b3461026f575f36600319011261026f57611c86612595565b611c8e6126a9565b60ff195f51602061271d5f395f51905f5254165f51602061271d5f395f51905f52557f5db9ee0a495bf2e6ff9c91a7834c1ba4fdd244a5e8aa4e537bd38aeae4b073aa6020604051338152a1005b3461026f57602036600319011261026f576001600160a01b03611cfd61214f565b168015610453576020602491604051928380926370a0823160e01b82523060048301525afa8015610321575f906102ee57602090604051908152f35b3461026f57602036600319011261026f57600435611d556125b5565b611d5d6125ed565b611d6681612614565b805f52603560205260405f2090600882019160ff83541660068110159081610c6a576002811490811590816120b8575b50610c5b57600383019160018060a01b0383541633141580612097575b610c4c5760048401549560018060a01b0360018601541693611de2611dda6066548a6123ba565b5f54906123cd565b92611ded848a612218565b835460ff1916600417909355610c6a57879315611ede575050835460405163a9059cbb60e01b81526001600160a01b03909116600482015260248101929092525090602090829060449082905f905af1908115610321575f91611ea4575b50156115c65760207f5573a774401f48f00a6daf92475b23c21e67cb0de431cf3d63cd0558188d155c915b546040519485526001600160a01b031693a360015f51602061273d5f395f51905f5255602060405160018152f35b90506020813d602011611ed6575b81611ebf602093836121dd565b8101031261026f57611ed0906123eb565b84611e4b565b3d9150611eb2565b546040516323b872dd60e01b81526001600160a01b03909116600482015230602482015260448101919091529091506020816064815f875af1908115610321575f9161205d575b50156115c6576001546040516323b872dd60e01b81526001600160a01b03909116600482015230602482015260448101919091526020816064815f865af1908115610321575f91612023575b50156115c657815460405163a9059cbb60e01b81526001600160a01b0390911660048201526024810185905290602090829060449082905f905af1908115610321575f91611fe9575b50156115c65760207f5573a774401f48f00a6daf92475b23c21e67cb0de431cf3d63cd0558188d155c91611e76565b90506020813d60201161201b575b81612004602093836121dd565b8101031261026f57612015906123eb565b84611fba565b3d9150611ff7565b90506020813d602011612055575b8161203e602093836121dd565b8101031261026f5761204f906123eb565b85611f71565b3d9150612031565b90506020813d60201161208f575b81612078602093836121dd565b8101031261026f57612089906123eb565b86611f25565b3d915061206b565b505f5160206126fd5f395f51905f52546001600160a01b0316331415611db3565b92505060035f92141586611d96565b3461026f57602036600319011261026f5760043580151580910361026f5760207fd4f0990d03e7ad5243d0a8589d4a52df340d2bb32a2547814d93b8067467556591612111612595565b60ff196068541660ff821617606855604051908152a1005b3461026f57602036600319011261026f576020612147600435612225565b604051908152f35b600435906001600160a01b038216820361026f57565b602435906001600160a01b038216820361026f57565b906006821015610c6a5752565b90600182811c921680156121b6575b60208310146121a257565b634e487b7160e01b5f52602260045260245ffd5b91607f1691612197565b610140810190811067ffffffffffffffff82111761121257604052565b90601f8019910116810190811067ffffffffffffffff82111761121257604052565b6006821015610c6a5752565b9190820180921161123557565b9190820391821161123557565b805f52603560205260ff600560405f2001541615610920575f52603560205260405f20604051612254816121c0565b81546001600160a01b03908116825260018301548116602083015260028301546040808401919091526003840154909116606083015260048301546080830152600583015460ff8116151560a084015260081c6001600160601b031660c0830152600683015460e0830190815290516007840180549294925f916122d782612188565b80855291600181169081156123925750600114612354575b5050600861231b93836123096101209560ff9503826121dd565b610100870152015416920191826121ff565b516006811015610c6a575f190161234f57516067546123399161220b565b8042101561234f5761234c904290612218565b90565b505f90565b5f908152602081209092505b8183106123785750508101602001600861231b6122ef565b600181602092949394548385880101520191019190612360565b60ff191660208087019190915292151560051b850190920192506008915061231b90506122ef565b8181029291811591840414171561123557565b81156123d7570490565b634e487b7160e01b5f52601260045260245ffd5b5190811515820361026f57565b51906001600160a01b038216820361026f57565b67ffffffffffffffff811161121257601f01601f191660200190565b805f52603560205260ff600560405f200154161561234f575f52603560205260405f20604051612457816121c0565b81546001600160a01b03908116825260018301548116602083015260028301546040808401919091526003840154909116606083015260048301546080830152600583015460ff8116151560a084015260081c6001600160601b031660c0830152600683015460e0830190815290516007840180549294925f916124da82612188565b808552916001811690811561256d575060011461252f575b5050600861250c93836123096101209560ff9503826121dd565b516006811015610c6a575f190161234f575160675461252a9161220b565b421190565b5f908152602081209092505b8183106125535750508101602001600861250c6124f2565b60018160209294939454838588010152019101919061253b565b60ff191660208087019190915292151560051b850190920192506008915061250c90506124f2565b5f5160206126fd5f395f51905f52546001600160a01b03163303610b3a57565b60025f51602061273d5f395f51905f5254146125de5760025f51602061273d5f395f51905f5255565b633ee5aeb560e01b5f5260045ffd5b60ff5f51602061271d5f395f51905f52541661260557565b63d93c066560e01b5f5260045ffd5b5f52603560205260ff600560405f200154161561092057565b60ff16604d811161123557600a0a90565b5f51602061277d5f395f51905f5280546001600160a01b03199081169091555f5160206126fd5f395f51905f5280549182166001600160a01b0393841690811790915591167f8be0079c531659141344cd1fd0a4f28419497f9722a3daafe3b4186f6b6457e05f80a3565b60ff5f51602061271d5f395f51905f525416156126c257565b638dfc202b60e01b5f5260045ffd5b60ff5f51602061275d5f395f51905f525460401c16156126ed57565b631afcd79f60e31b5f5260045ffdfe9016d09d72d40fdae2fd8ceac6b6234c7706214fd39c1cd1e609a0528c199300cd5ed15c6e187e77e9aee88184c21f4f2182ab5827cb3b7e07fbedcd63f033009b779b17422d0df92223018b32b4d1fa46e071723d6817e2486d003becc55f00f0c57e16840df040f15088dc2f81fe391c3923bec73e23a9662efc9c229c6a00237e158222e3e6968b72b9db0d8043aacf074ad9f650f0d1606b4d82ee432c00a26469706673582212208e64a054ecd20c2f2a4695b9507da03e065a6c2a57c7d46ba9595766bf2a41ba64736f6c634300081e0033f0c57e16840df040f15088dc2f81fe391c3923bec73e23a9662efc9c229c6a00",
    "linkReferences": {}
  },
  "methodIdentifiers": {
    "acceptOwnership()": "79ba5097",
    "cancelOrder(bytes32)": "7489ec23",
    "createOrder(bytes32,address,uint256,string)": "6beccaf8",
    "defaultPlatformFeeBps()": "ed3b7e9f",
    "emergencyWithdraw(address,address,uint256)": "e63ea408",
    "emergencyWithdrawalEnabled()": "7fe4e8ee",
    "getContractTokenBalance(address)": "14205e28",
    "getMerchantTokenBalance(address,address)": "f3d94b8e",
    "getOrder(bytes32)": "5778472a",
    "getOrderCreatedAt(bytes32)": "bc476cda",
    "getOrderRemainingTime(bytes32)": "01904028",
    "getOrderStatus(bytes32)": "46423aa7",
    "getPlatformTokenBalance(address)": "e9386b0b",
    "getPlatformWallet()": "d76a09f4",
    "initialize(address,uint256,address,uint256,address)": "e251d7be",
    "isOrderExpired(bytes32)": "b8293da7",
    "isTokenSupported(address)": "75151b63",
    "merchantRegistry()": "6eca5042",
    "orderExpirationTime()": "e6d05b93",
    "owner()": "8da5cb5b",
    "pause()": "8456cb59",
    "paused()": "5c975abb",
    "payOrder(bytes32)": "58504a36",
    "pendingOwner()": "e30c3978",
    "refundOrder(bytes32)": "116a1d9a",
    "renounceOwnership()": "715018a6",
    "setEmergencyWithdrawalEnabled(bool)": "0a66bb45",
    "setTokenSupport(address,uint256)": "f89248a4",
    "settleOrder(bytes32)": "49085d8c",
    "transferOwnership(address)": "f2fde38b",
    "unpause()": "3f4ba83a",
    "updateMerchantRegistry(address)": "85625ac3",
    "updateOrderExpirationTime(uint256)": "b2721bd7",
    "updateProtocolAddress(bytes32,address)": "40ebc677"
  },
  "storageLayout": {
    "storage": [
      {
        "astId": 52790,
        "contract": "src/contracts/PaymentProcessor.sol:PaymentProcessor",
        "label": "maxBps",
        "offset": 0,
        "slot": "0",
        "type": "t_uint256"
      },
      {
        "astId": 52792,
        "contract": "src/contracts/PaymentProcessor.sol:PaymentProcessor",
        "label": "platformWallet",
        "offset": 0,
        "slot": "1",
        "type": "t_address"
      },
      {
        "astId": 52796,
        "contract": "src/contracts/PaymentProcessor.sol:PaymentProcessor",
        "label": "_isTokenSupported",
        "offset": 0,
        "slot": "2",
        "type": "t_mapping(t_address,t_uint256)"
      },
      {
        "astId": 52800,
        "contract": "src/contracts/PaymentProcessor.sol:PaymentProcessor",
        "label": "_gap",
        "offset": 0,
        "slot": "3",
        "type": "t_array(t_uint256)50_storage"
      },
      {
        "astId": 51303,
        "contract": "src/contracts/PaymentProcessor.sol:PaymentProcessor",
        "label": "order",
        "offset": 0,
        "slot": "53",
        "type": "t_mapping(t_bytes32,t_struct(Order)53181_storage)"
      },
      {
        "astId": 51307,
        "contract": "src/contracts/PaymentProcessor.sol:PaymentProcessor",
        "label": "_nonce",
        "offset": 0,
        "slot": "54",
        "type": "t_mapping(t_address,t_uint256)"
      },
      {
        "astId": 51311,
        "contract": "src/contracts/PaymentProcessor.sol:PaymentProcessor",
        "label": "_gap",
        "offset": 0,
        "slot": "55",
        "type": "t_array(t_uint256)47_storage"
      },
      {
        "astId": 51313,
        "contract": "src/contracts/PaymentProcessor.sol:PaymentProcessor",
        "label": "defaultPlatformFeeBps",
        "offset": 0,
        "slot": "102",
        "type": "t_uint256"
      },
      {
        "astId": 51315,
        "contract": "src/contracts/PaymentProcessor.sol:PaymentProcessor",
        "label": "orderExpirationTime",
        "offset": 0,
        "slot": "103",
        "type": "t_uint256"
      },
      {
        "astId": 51317,
        "contract": "src/contracts/PaymentProcessor.sol:PaymentProcessor",
        "label": "emergencyWithdrawalEnabled",
        "offset": 0,
        "slot": "104",
        "type": "t_bool"
      },
      {
        "astId": 51320,
        "contract": "src/contracts/PaymentProcessor.sol:PaymentProcessor",
        "label": "merchantRegistry",
        "offset": 1,
        "slot": "104",
        "type": "t_contract(MerchantRegistry)51235"
      }
    ],
    "types": {
      "t_address": {
        "encoding": "inplace",
        "label": "address",
        "numberOfBytes": "20"
      },
      "t_array(t_uint256)47_storage": {
        "encoding": "inplace",
        "label": "uint256[47]",
        "numberOfBytes": "1504",
        "base": "t_uint256"
      },
      "t_array(t_uint256)50_storage": {
        "encoding": "inplace",
        "label": "uint256[50]",
        "numberOfBytes": "1600",
        "base": "t_uint256"
      },
      "t_bool": {
        "encoding": "inplace",
        "label": "bool",
        "numberOfBytes": "1"
      },
      "t_bytes32": {
        "encoding": "inplace",
        "label": "bytes32",
        "numberOfBytes": "32"
      },
      "t_contract(MerchantRegistry)51235": {
        "encoding": "inplace",
        "label": "contract MerchantRegistry",
        "numberOfBytes": "20"
      },
      "t_enum(OrderStatus)53158": {
        "encoding": "inplace",
        "label": "enum IPaymentProcessor.OrderStatus",
        "numberOfBytes": "1"
      },
      "t_mapping(t_address,t_uint256)": {
        "encoding": "mapping",
        "key": "t_address",
        "label": "mapping(address => uint256)",
        "numberOfBytes": "32",
        "value": "t_uint256"
      },
      "t_mapping(t_bytes32,t_struct(Order)53181_storage)": {
        "encoding": "mapping",
        "key": "t_bytes32",
        "label": "mapping(bytes32 => struct IPaymentProcessor.Order)",
        "numberOfBytes": "32",
        "value": "t_struct(Order)53181_storage"
      },
      "t_string_storage": {
        "encoding": "bytes",
        "label": "string",
        "numberOfBytes": "32"
      },
      "t_struct(Order)53181_storage": {
        "encoding": "inplace",
        "label": "struct IPaymentProcessor.Order",
        "numberOfBytes": "288",
        "members": [
          {
            "astId": 53161,
            "contract": "src/contracts/PaymentProcessor.sol:PaymentProcessor",
            "label": "payer",
            "offset": 0,
            "slot": "0",
            "type": "t_address"
          },
          {
            "astId": 53163,
            "contract": "src/contracts/PaymentProcessor.sol:PaymentProcessor",
            "label": "token",
            "offset": 0,
            "slot": "1",
            "type": "t_address"
          },
          {
            "astId": 53165,
            "contract": "src/contracts/PaymentProcessor.sol:PaymentProcessor",
            "label": "merchantId",
            "offset": 0,
            "slot": "2",
            "type": "t_bytes32"
          },
          {
            "astId": 53167,
            "contract": "src/contracts/PaymentProcessor.sol:PaymentProcessor",
            "label": "merchantPayout",
            "offset": 0,
            "slot": "3",
            "type": "t_address"
          },
          {
            "astId": 53169,
            "contract": "src/contracts/PaymentProcessor.sol:PaymentProcessor",
            "label": "amount",
            "offset": 0,
            "slot": "4",
            "type": "t_uint256"
          },
          {
            "astId": 53171,
            "contract": "src/contracts/PaymentProcessor.sol:PaymentProcessor",
            "label": "exists",
            "offset": 0,
            "slot": "5",
            "type": "t_bool"
          },
          {
            "astId": 53173,
            "contract": "src/contracts/PaymentProcessor.sol:PaymentProcessor",
            "label": "currentBps",
            "offset": 1,
            "slot": "5",
            "type": "t_uint96"
          },
          {
            "astId": 53175,
            "contract": "src/contracts/PaymentProcessor.sol:PaymentProcessor",
            "label": "createdAt",
            "offset": 0,
            "slot": "6",
            "type": "t_uint256"
          },
          {
            "astId": 53177,
            "contract": "src/contracts/PaymentProcessor.sol:PaymentProcessor",
            "label": "metadataUri",
            "offset": 0,
            "slot": "7",
            "type": "t_string_storage"
          },
          {
            "astId": 53180,
            "contract": "src/contracts/PaymentProcessor.sol:PaymentProcessor",
            "label": "status",
            "offset": 0,
            "slot": "8",
            "type": "t_enum(OrderStatus)53158"
          }
        ]
      },
      "t_uint256": {
        "encoding": "inplace",
        "label": "uint256",
        "numberOfBytes": "32"
      },
      "t_uint96": {
        "encoding": "inplace",
        "label": "uint96",
        "numberOfBytes": "12"
      }
    }
  },
  "id": 66
}